{
  "_format": "hh-sol-artifact-1",
  "contractName": "TokenMarket",
  "sourceName": "contracts/TokenMarket.sol",
  "abi": [
    {
      "inputs": [
        {
          "internalType": "address",
          "name": "tokenPairAddress",
          "type": "address"
        }
      ],
      "stateMutability": "nonpayable",
      "type": "constructor"
    },
    {
      "inputs": [],
      "name": "getLatestPrice",
      "outputs": [
        {
          "internalType": "int256",
          "name": "",
          "type": "int256"
        },
        {
          "internalType": "uint256",
          "name": "",
          "type": "uint256"
        }
      ],
      "stateMutability": "view",
      "type": "function"
    },
    {
      "inputs": [
        {
          "internalType": "uint256",
          "name": "_amount",
          "type": "uint256"
        }
      ],
      "name": "swapEthToUsd",
      "outputs": [
        {
          "internalType": "uint256",
          "name": "_value",
          "type": "uint256"
        }
      ],
      "stateMutability": "view",
      "type": "function"
    },
    {
      "inputs": [
        {
          "internalType": "uint256",
          "name": "_amount",
          "type": "uint256"
        },
        {
          "internalType": "uint8",
          "name": "_precision",
          "type": "uint8"
        }
      ],
      "name": "swapUsdToEth",
      "outputs": [
        {
          "internalType": "uint256",
          "name": "_value",
          "type": "uint256"
        }
      ],
      "stateMutability": "view",
      "type": "function"
    }
  ],
  "bytecode": "0x608060405234801561001057600080fd5b506040516109213803806109218339818101604052810190610032919061008d565b806000806101000a81548173ffffffffffffffffffffffffffffffffffffffff021916908373ffffffffffffffffffffffffffffffffffffffff160217905550506100ff565b600081519050610087816100e8565b92915050565b60006020828403121561009f57600080fd5b60006100ad84828501610078565b91505092915050565b60006100c1826100c8565b9050919050565b600073ffffffffffffffffffffffffffffffffffffffff82169050919050565b6100f1816100b6565b81146100fc57600080fd5b50565b6108138061010e6000396000f3fe608060405234801561001057600080fd5b50600436106100415760003560e01c806309161b98146100465780630e80edf2146100765780638e15f473146100a6575b600080fd5b610060600480360381019061005b9190610331565b6100c5565b60405161006d919061047d565b60405180910390f35b610090600480360381019061008b919061035a565b610102565b60405161009d919061047d565b60405180910390f35b6100ae610157565b6040516100bc929190610454565b60405180910390f35b60008060006100d2610157565b9150915080600a6100e3919061051c565b84836100ef9190610685565b6100f99190610498565b92505050919050565b600080600061010f610157565b915091508184600a6101219190610567565b8683600a61012f919061051c565b6101399190610685565b6101439190610685565b61014d9190610498565b9250505092915050565b60008060008060009054906101000a900473ffffffffffffffffffffffffffffffffffffffff1673ffffffffffffffffffffffffffffffffffffffff1663feaf968c6040518163ffffffff1660e01b815260040160a06040518083038186803b1580156101c357600080fd5b505afa1580156101d7573d6000803e3d6000fd5b505050506040513d601f19601f820116820180604052508101906101fb9190610396565b50505091505060008060009054906101000a900473ffffffffffffffffffffffffffffffffffffffff1673ffffffffffffffffffffffffffffffffffffffff1663313ce5676040518163ffffffff1660e01b815260040160206040518083038186803b15801561026a57600080fd5b505afa15801561027e573d6000803e3d6000fd5b505050506040513d601f19601f820116820180604052508101906102a2919061040d565b60ff16905081819350935050509091565b6000815190506102c281610781565b92915050565b6000813590506102d781610798565b92915050565b6000815190506102ec81610798565b92915050565b600081359050610301816107af565b92915050565b600081519050610316816107c6565b92915050565b60008151905061032b816107af565b92915050565b60006020828403121561034357600080fd5b6000610351848285016102c8565b91505092915050565b6000806040838503121561036d57600080fd5b600061037b858286016102c8565b925050602061038c858286016102f2565b9150509250929050565b600080600080600060a086880312156103ae57600080fd5b60006103bc88828901610307565b95505060206103cd888289016102b3565b94505060406103de888289016102dd565b93505060606103ef888289016102dd565b925050608061040088828901610307565b9150509295509295909350565b60006020828403121561041f57600080fd5b600061042d8482850161031c565b91505092915050565b61043f816106df565b82525050565b61044e816106e9565b82525050565b60006040820190506104696000830185610436565b6104766020830184610445565b9392505050565b60006020820190506104926000830184610445565b92915050565b60006104a3826106e9565b91506104ae836106e9565b9250826104be576104bd610745565b5b828204905092915050565b6000808291508390505b6001851115610513578086048111156104ef576104ee610716565b5b60018516156104fe5780820291505b808102905061050c85610774565b94506104d3565b94509492505050565b6000610527826106e9565b9150610532836106e9565b925061055f7fffffffffffffffffffffffffffffffffffffffffffffffffffffffffffffffff84846105b2565b905092915050565b6000610572826106e9565b915061057d836106f3565b92506105aa7fffffffffffffffffffffffffffffffffffffffffffffffffffffffffffffffff84846105b2565b905092915050565b6000826105c2576001905061067e565b816105d0576000905061067e565b81600181146105e657600281146105f05761061f565b600191505061067e565b60ff84111561060257610601610716565b5b8360020a91508482111561061957610618610716565b5b5061067e565b5060208310610133831016604e8410600b84101617156106545782820a90508381111561064f5761064e610716565b5b61067e565b61066184848460016104c9565b9250905081840481111561067857610677610716565b5b81810290505b9392505050565b6000610690826106e9565b915061069b836106e9565b9250817fffffffffffffffffffffffffffffffffffffffffffffffffffffffffffffffff04831182151516156106d4576106d3610716565b5b828202905092915050565b6000819050919050565b6000819050919050565b600060ff82169050919050565b600069ffffffffffffffffffff82169050919050565b7f4e487b7100000000000000000000000000000000000000000000000000000000600052601160045260246000fd5b7f4e487b7100000000000000000000000000000000000000000000000000000000600052601260045260246000fd5b60008160011c9050919050565b61078a816106df565b811461079557600080fd5b50565b6107a1816106e9565b81146107ac57600080fd5b50565b6107b8816106f3565b81146107c357600080fd5b50565b6107cf81610700565b81146107da57600080fd5b5056fea264697066735822122027b46bf072808ba026fdc198419b436ba474ae7b97dd5577cd17ac3751e9a96764736f6c63430008040033",
  "linkReferences": {},
  "deployedLinkReferences": {}
}